{
  "_format": "hh-sol-artifact-1",
  "contractName": "policy",
  "sourceName": "contracts/policy.sol",
  "abi": [
    {
      "inputs": [],
      "stateMutability": "nonpayable",
      "type": "constructor"
    },
    {
      "anonymous": false,
      "inputs": [
        {
          "indexed": false,
          "internalType": "string",
          "name": "success",
          "type": "string"
        }
      ],
      "name": "SignUpResult",
      "type": "event"
    },
    {
      "inputs": [],
      "name": "convert",
      "outputs": [
        {
          "internalType": "string",
          "name": "",
          "type": "string"
        }
      ],
      "stateMutability": "view",
      "type": "function"
    },
    {
      "inputs": [
        {
          "internalType": "string",
          "name": "datasetID",
          "type": "string"
        },
        {
          "internalType": "string",
          "name": "hospitalId",
          "type": "string"
        },
        {
          "internalType": "string",
          "name": "doctorId",
          "type": "string"
        },
        {
          "internalType": "string",
          "name": "specialization",
          "type": "string"
        },
        {
          "internalType": "bytes",
          "name": "signature",
          "type": "bytes"
        }
      ],
      "name": "evaluate",
      "outputs": [],
      "stateMutability": "nonpayable",
      "type": "function"
    },
    {
      "inputs": [
        {
          "internalType": "bytes32",
          "name": "_messageHash",
          "type": "bytes32"
        }
      ],
      "name": "getEthSignedMessageHash",
      "outputs": [
        {
          "internalType": "bytes32",
          "name": "",
          "type": "bytes32"
        }
      ],
      "stateMutability": "pure",
      "type": "function"
    },
    {
      "inputs": [
        {
          "internalType": "string",
          "name": "_message",
          "type": "string"
        }
      ],
      "name": "getMessageHash",
      "outputs": [
        {
          "internalType": "bytes32",
          "name": "",
          "type": "bytes32"
        }
      ],
      "stateMutability": "pure",
      "type": "function"
    },
    {
      "inputs": [],
      "name": "getPolicy",
      "outputs": [
        {
          "internalType": "string",
          "name": "",
          "type": "string"
        }
      ],
      "stateMutability": "pure",
      "type": "function"
    },
    {
      "inputs": [],
      "name": "publicKey",
      "outputs": [
        {
          "internalType": "address",
          "name": "",
          "type": "address"
        }
      ],
      "stateMutability": "view",
      "type": "function"
    },
    {
      "inputs": [
        {
          "internalType": "bytes32",
          "name": "_ethSignedMessageHash",
          "type": "bytes32"
        },
        {
          "internalType": "bytes",
          "name": "_signature",
          "type": "bytes"
        }
      ],
      "name": "recoverSigner",
      "outputs": [
        {
          "internalType": "address",
          "name": "",
          "type": "address"
        }
      ],
      "stateMutability": "pure",
      "type": "function"
    },
    {
      "inputs": [
        {
          "internalType": "bytes",
          "name": "sig",
          "type": "bytes"
        }
      ],
      "name": "splitSignature",
      "outputs": [
        {
          "internalType": "bytes32",
          "name": "r",
          "type": "bytes32"
        },
        {
          "internalType": "bytes32",
          "name": "s",
          "type": "bytes32"
        },
        {
          "internalType": "uint8",
          "name": "v",
          "type": "uint8"
        }
      ],
      "stateMutability": "pure",
      "type": "function"
    },
    {
      "inputs": [
        {
          "internalType": "address",
          "name": "_signer",
          "type": "address"
        },
        {
          "internalType": "string",
          "name": "_message",
          "type": "string"
        },
        {
          "internalType": "bytes",
          "name": "signature",
          "type": "bytes"
        }
      ],
      "name": "verify",
      "outputs": [
        {
          "internalType": "bool",
          "name": "",
          "type": "bool"
        }
      ],
      "stateMutability": "pure",
      "type": "function"
    }
  ],
  "bytecode": "0x60806040523480156200001157600080fd5b506040518060400160405280600981526020017f486f73706974616c410000000000000000000000000000000000000000000000815250600060405162000058906200019c565b908152602001604051809103902090816200007491906200042d565b506040518060400160405280600681526020017f646f6331323300000000000000000000000000000000000000000000000000008152506000604051620000bb9062000564565b90815260200160405180910390209081620000d791906200042d565b506040518060400160405280600a81526020017f43617264696f6c6f67790000000000000000000000000000000000000000000081525060006040516200011e90620005cb565b908152602001604051809103902090816200013a91906200042d565b50620005e2565b600081905092915050565b7f686f73706974616c496400000000000000000000000000000000000000000000600082015250565b600062000184600a8362000141565b915062000191826200014c565b600a82019050919050565b6000620001a98262000175565b9150819050919050565b600081519050919050565b7f4e487b7100000000000000000000000000000000000000000000000000000000600052604160045260246000fd5b7f4e487b7100000000000000000000000000000000000000000000000000000000600052602260045260246000fd5b600060028204905060018216806200023557607f821691505b6020821081036200024b576200024a620001ed565b5b50919050565b60008190508160005260206000209050919050565b60006020601f8301049050919050565b600082821b905092915050565b600060088302620002b57fffffffffffffffffffffffffffffffffffffffffffffffffffffffffffffffff8262000276565b620002c1868362000276565b95508019841693508086168417925050509392505050565b6000819050919050565b6000819050919050565b60006200030e620003086200030284620002d9565b620002e3565b620002d9565b9050919050565b6000819050919050565b6200032a83620002ed565b62000342620003398262000315565b84845462000283565b825550505050565b600090565b620003596200034a565b620003668184846200031f565b505050565b5b818110156200038e57620003826000826200034f565b6001810190506200036c565b5050565b601f821115620003dd57620003a78162000251565b620003b28462000266565b81016020851015620003c2578190505b620003da620003d18562000266565b8301826200036b565b50505b505050565b600082821c905092915050565b60006200040260001984600802620003e2565b1980831691505092915050565b60006200041d8383620003ef565b9150826002028217905092915050565b6200043882620001b3565b67ffffffffffffffff811115620004545762000453620001be565b5b6200046082546200021c565b6200046d82828562000392565b600060209050601f831160018114620004a5576000841562000490578287015190505b6200049c85826200040f565b8655506200050c565b601f198416620004b58662000251565b60005b82811015620004df57848901518255600182019150602085019450602081019050620004b8565b86831015620004ff5784890151620004fb601f891682620003ef565b8355505b6001600288020188555050505b505050505050565b7f646f63746f724964000000000000000000000000000000000000000000000000600082015250565b60006200054c60088362000141565b9150620005598262000514565b600882019050919050565b600062000571826200053d565b9150819050919050565b7f7370656369616c697a6174696f6e000000000000000000000000000000000000600082015250565b6000620005b3600e8362000141565b9150620005c0826200057b565b600e82019050919050565b6000620005d882620005a4565b9150819050919050565b6116f880620005f26000396000f3fe608060405234801561001057600080fd5b50600436106100935760003560e01c806397aba7f91161006657806397aba7f914610120578063a7bb580314610150578063b446f3b214610182578063ce1e4626146101b2578063fa540801146101d057610093565b80632dd34f0f1461009857806363ffab31146100c85780638421f66a146100e657806391bbdcc714610102575b600080fd5b6100b260048036038101906100ad9190610c06565b610200565b6040516100bf9190610cac565b60405180910390f35b6100d061025e565b6040516100dd9190610cd6565b60405180910390f35b61010060048036038101906100fb9190610cf1565b610276565b005b61010a61053b565b6040516101179190610e77565b60405180910390f35b61013a60048036038101906101359190610ecf565b610551565b6040516101479190610cd6565b60405180910390f35b61016a60048036038101906101659190610f2b565b6105c0565b60405161017993929190610f9f565b60405180910390f35b61019c60048036038101906101979190610fd6565b610628565b6040516101a9919061101f565b60405180910390f35b6101ba610658565b6040516101c79190610e77565b60405180910390f35b6101ea60048036038101906101e5919061103a565b610678565b6040516101f7919061101f565b60405180910390f35b60008061020c84610628565b9050600061021982610678565b90508573ffffffffffffffffffffffffffffffffffffffff1661023c8286610551565b73ffffffffffffffffffffffffffffffffffffffff1614925050509392505050565b737264d9fd1a56d865d8b7d96e5251a6efe820b48381565b600115156102bc737264d9fd1a56d865d8b7d96e5251a6efe820b4838686866040516020016102a7939291906110ef565b60405160208183030381529060405284610200565b1515146102fe576040517f08c379a00000000000000000000000000000000000000000000000000000000081526004016102f590611182565b60405180910390fd5b60008460405160200161031191906111a2565b60405160208183030381529060405280519060200120600060405161033590611205565b90815260200160405180910390206040516020016103539190611312565b604051602081830303815290604052805190602001201480156103dc57508360405160200161038291906111a2565b6040516020818303038152906040528051906020012060006040516103a690611375565b90815260200160405180910390206040516020016103c49190611312565b60405160208183030381529060405280519060200120145b801561044e5750826040516020016103f491906111a2565b604051602081830303815290604052805190602001206000604051610418906113d6565b90815260200160405180910390206040516020016104369190611312565b60405160208183030381529060405280519060200120145b9050600061045a61053b565b905060008261049e576040518060400160405280600581526020017f66616c73650000000000000000000000000000000000000000000000000000008152506104d5565b6040518060400160405280600481526020017f74727565000000000000000000000000000000000000000000000000000000008152505b82896040516020016104e993929190611437565b60405160208183030381529060405290507f0d296dbb8bcdfde31faa165965bf6e3983386c6dd968f1947b22137719fdde57816040516105299190610e77565b60405180910390a15050505050505050565b6060600033905061054b816106a8565b91505090565b600080600080610560856105c0565b92509250925060018682858560405160008152602001604052604051610589949392919061147e565b6020604051602081039080840390855afa1580156105ab573d6000803e3d6000fd5b50505060206040510351935050505092915050565b60008060006041845114610609576040517f08c379a00000000000000000000000000000000000000000000000000000000081526004016106009061150f565b60405180910390fd5b6020840151925060408401519150606084015160001a90509193909250565b60008160405160200161063b91906111a2565b604051602081830303815290604052805190602001209050919050565b60606040518060600160405280602281526020016116a160229139905090565b60008160405160200161068b919061159c565b604051602081830303815290604052805190602001209050919050565b606060008273ffffffffffffffffffffffffffffffffffffffff1660001b905060006040518060400160405280601081526020017f303132333435363738396162636465660000000000000000000000000000000081525090506000602a67ffffffffffffffff81111561071f5761071e610a3a565b5b6040519080825280601f01601f1916602001820160405280156107515781602001600182028036833780820191505090505b5090507f300000000000000000000000000000000000000000000000000000000000000081600081518110610789576107886115c2565b5b60200101907effffffffffffffffffffffffffffffffffffffffffffffffffffffffffffff1916908160001a9053507f7800000000000000000000000000000000000000000000000000000000000000816001815181106107ed576107ec6115c2565b5b60200101907effffffffffffffffffffffffffffffffffffffffffffffffffffffffffffff1916908160001a90535060005b60148110156109a15782600485600c84610839919061162a565b6020811061084a576108496115c2565b5b1a60f81b7effffffffffffffffffffffffffffffffffffffffffffffffffffffffffffff1916901c60f81c60ff1681518110610889576108886115c2565b5b602001015160f81c60f81b826002836108a2919061165e565b60026108ae919061162a565b815181106108bf576108be6115c2565b5b60200101907effffffffffffffffffffffffffffffffffffffffffffffffffffffffffffff1916908160001a90535082600f60f81b85600c84610902919061162a565b60208110610913576109126115c2565b5b1a60f81b1660f81c60ff168151811061092f5761092e6115c2565b5b602001015160f81c60f81b82600283610948919061165e565b6003610954919061162a565b81518110610965576109646115c2565b5b60200101907effffffffffffffffffffffffffffffffffffffffffffffffffffffffffffff1916908160001a905350808060010191505061081f565b50809350505050919050565b6000604051905090565b600080fd5b600080fd5b600073ffffffffffffffffffffffffffffffffffffffff82169050919050565b60006109ec826109c1565b9050919050565b6109fc816109e1565b8114610a0757600080fd5b50565b600081359050610a19816109f3565b92915050565b600080fd5b600080fd5b6000601f19601f8301169050919050565b7f4e487b7100000000000000000000000000000000000000000000000000000000600052604160045260246000fd5b610a7282610a29565b810181811067ffffffffffffffff82111715610a9157610a90610a3a565b5b80604052505050565b6000610aa46109ad565b9050610ab08282610a69565b919050565b600067ffffffffffffffff821115610ad057610acf610a3a565b5b610ad982610a29565b9050602081019050919050565b82818337600083830152505050565b6000610b08610b0384610ab5565b610a9a565b905082815260208101848484011115610b2457610b23610a24565b5b610b2f848285610ae6565b509392505050565b600082601f830112610b4c57610b4b610a1f565b5b8135610b5c848260208601610af5565b91505092915050565b600067ffffffffffffffff821115610b8057610b7f610a3a565b5b610b8982610a29565b9050602081019050919050565b6000610ba9610ba484610b65565b610a9a565b905082815260208101848484011115610bc557610bc4610a24565b5b610bd0848285610ae6565b509392505050565b600082601f830112610bed57610bec610a1f565b5b8135610bfd848260208601610b96565b91505092915050565b600080600060608486031215610c1f57610c1e6109b7565b5b6000610c2d86828701610a0a565b935050602084013567ffffffffffffffff811115610c4e57610c4d6109bc565b5b610c5a86828701610b37565b925050604084013567ffffffffffffffff811115610c7b57610c7a6109bc565b5b610c8786828701610bd8565b9150509250925092565b60008115159050919050565b610ca681610c91565b82525050565b6000602082019050610cc16000830184610c9d565b92915050565b610cd0816109e1565b82525050565b6000602082019050610ceb6000830184610cc7565b92915050565b600080600080600060a08688031215610d0d57610d0c6109b7565b5b600086013567ffffffffffffffff811115610d2b57610d2a6109bc565b5b610d3788828901610b37565b955050602086013567ffffffffffffffff811115610d5857610d576109bc565b5b610d6488828901610b37565b945050604086013567ffffffffffffffff811115610d8557610d846109bc565b5b610d9188828901610b37565b935050606086013567ffffffffffffffff811115610db257610db16109bc565b5b610dbe88828901610b37565b925050608086013567ffffffffffffffff811115610ddf57610dde6109bc565b5b610deb88828901610bd8565b9150509295509295909350565b600081519050919050565b600082825260208201905092915050565b60005b83811015610e32578082015181840152602081019050610e17565b60008484015250505050565b6000610e4982610df8565b610e538185610e03565b9350610e63818560208601610e14565b610e6c81610a29565b840191505092915050565b60006020820190508181036000830152610e918184610e3e565b905092915050565b6000819050919050565b610eac81610e99565b8114610eb757600080fd5b50565b600081359050610ec981610ea3565b92915050565b60008060408385031215610ee657610ee56109b7565b5b6000610ef485828601610eba565b925050602083013567ffffffffffffffff811115610f1557610f146109bc565b5b610f2185828601610bd8565b9150509250929050565b600060208284031215610f4157610f406109b7565b5b600082013567ffffffffffffffff811115610f5f57610f5e6109bc565b5b610f6b84828501610bd8565b91505092915050565b610f7d81610e99565b82525050565b600060ff82169050919050565b610f9981610f83565b82525050565b6000606082019050610fb46000830186610f74565b610fc16020830185610f74565b610fce6040830184610f90565b949350505050565b600060208284031215610fec57610feb6109b7565b5b600082013567ffffffffffffffff81111561100a576110096109bc565b5b61101684828501610b37565b91505092915050565b60006020820190506110346000830184610f74565b92915050565b6000602082840312156110505761104f6109b7565b5b600061105e84828501610eba565b91505092915050565b600081905092915050565b600061107d82610df8565b6110878185611067565b9350611097818560208601610e14565b80840191505092915050565b7f2c20000000000000000000000000000000000000000000000000000000000000600082015250565b60006110d9600283611067565b91506110e4826110a3565b600282019050919050565b60006110fb8286611072565b9150611106826110cc565b91506111128285611072565b915061111d826110cc565b91506111298284611072565b9150819050949350505050565b7f496e76616c6964207369676e6174757265000000000000000000000000000000600082015250565b600061116c601183610e03565b915061117782611136565b602082019050919050565b6000602082019050818103600083015261119b8161115f565b9050919050565b60006111ae8284611072565b915081905092915050565b7f686f73706974616c496400000000000000000000000000000000000000000000600082015250565b60006111ef600a83611067565b91506111fa826111b9565b600a82019050919050565b6000611210826111e2565b9150819050919050565b7f4e487b7100000000000000000000000000000000000000000000000000000000600052602260045260246000fd5b6000600282049050600182168061126157607f821691505b6020821081036112745761127361121a565b5b50919050565b60008190508160005260206000209050919050565b6000815461129c81611249565b6112a68186611067565b945060018216600081146112c157600181146112d657611309565b60ff1983168652811515820286019350611309565b6112df8561127a565b60005b83811015611301578154818901526001820191506020810190506112e2565b838801955050505b50505092915050565b600061131e828461128f565b915081905092915050565b7f646f63746f724964000000000000000000000000000000000000000000000000600082015250565b600061135f600883611067565b915061136a82611329565b600882019050919050565b600061138082611352565b9150819050919050565b7f7370656369616c697a6174696f6e000000000000000000000000000000000000600082015250565b60006113c0600e83611067565b91506113cb8261138a565b600e82019050919050565b60006113e1826113b3565b9150819050919050565b7f3a00000000000000000000000000000000000000000000000000000000000000600082015250565b6000611421600183611067565b915061142c826113eb565b600182019050919050565b60006114438286611072565b915061144e82611414565b915061145a8285611072565b915061146582611414565b91506114718284611072565b9150819050949350505050565b60006080820190506114936000830187610f74565b6114a06020830186610f90565b6114ad6040830185610f74565b6114ba6060830184610f74565b95945050505050565b7f696e76616c6964207369676e6174757265206c656e6774680000000000000000600082015250565b60006114f9601883610e03565b9150611504826114c3565b602082019050919050565b60006020820190508181036000830152611528816114ec565b9050919050565b7f19457468657265756d205369676e6564204d6573736167653a0a333200000000600082015250565b6000611565601c83611067565b91506115708261152f565b601c82019050919050565b6000819050919050565b61159661159182610e99565b61157b565b82525050565b60006115a782611558565b91506115b38284611585565b60208201915081905092915050565b7f4e487b7100000000000000000000000000000000000000000000000000000000600052603260045260246000fd5b6000819050919050565b7f4e487b7100000000000000000000000000000000000000000000000000000000600052601160045260246000fd5b6000611635826115f1565b9150611640836115f1565b9250828201905080821115611658576116576115fb565b5b92915050565b6000611669826115f1565b9150611674836115f1565b9250828202611682816115f1565b91508282048414831517611699576116986115fb565b5b509291505056fe686f73706974616c49642c646f63746f7249642c7370656369616c697a6174696f6ea26469706673582212208132acdf778aeb5f3463ba5685826be4444b6e5cb2b8630224946cf484cba12664736f6c63430008180033",
  "linkReferences": {},
  "deployedLinkReferences": {}
}