{"contracts/rutgersDataset.sol":{"rutgersDataset":{"abi":[{"inputs":[],"stateMutability":"nonpayable","type":"constructor"},{"anonymous":false,"inputs":[{"indexed":false,"internalType":"string","name":"success","type":"string"}],"name":"SignUpResult","type":"event"},{"inputs":[],"name":"convert","outputs":[{"internalType":"string","name":"","type":"string"}],"stateMutability":"view","type":"function"},{"inputs":[{"internalType":"string","name":"datasetID","type":"string"},{"internalType":"string","name":"hospitalId","type":"string"},{"internalType":"string","name":"specialization","type":"string"},{"internalType":"bytes","name":"signature","type":"bytes"}],"name":"evaluate","outputs":[],"stateMutability":"nonpayable","type":"function"},{"inputs":[{"internalType":"bytes32","name":"_messageHash","type":"bytes32"}],"name":"getEthSignedMessageHash","outputs":[{"internalType":"bytes32","name":"","type":"bytes32"}],"stateMutability":"pure","type":"function"},{"inputs":[{"internalType":"string","name":"_message","type":"string"}],"name":"getMessageHash","outputs":[{"internalType":"bytes32","name":"","type":"bytes32"}],"stateMutability":"pure","type":"function"},{"inputs":[],"name":"getPolicy","outputs":[{"internalType":"string","name":"","type":"string"}],"stateMutability":"pure","type":"function"},{"inputs":[],"name":"publicKey","outputs":[{"internalType":"address","name":"","type":"address"}],"stateMutability":"view","type":"function"},{"inputs":[{"internalType":"bytes32","name":"_ethSignedMessageHash","type":"bytes32"},{"internalType":"bytes","name":"_signature","type":"bytes"}],"name":"recoverSigner","outputs":[{"internalType":"address","name":"","type":"address"}],"stateMutability":"pure","type":"function"},{"inputs":[{"internalType":"bytes","name":"sig","type":"bytes"}],"name":"splitSignature","outputs":[{"internalType":"bytes32","name":"r","type":"bytes32"},{"internalType":"bytes32","name":"s","type":"bytes32"},{"internalType":"uint8","name":"v","type":"uint8"}],"stateMutability":"pure","type":"function"},{"inputs":[{"internalType":"address","name":"_signer","type":"address"},{"internalType":"string","name":"_message","type":"string"},{"internalType":"bytes","name":"signature","type":"bytes"}],"name":"verify","outputs":[{"internalType":"bool","name":"","type":"bool"}],"stateMutability":"pure","type":"function"}],"evm":{"bytecode":{"linkReferences":{},"object":"60806040523480156200001157600080fd5b506040518060400160405280600981526020017f486f73706974616c4100000000000000000000000000000000000000000000008152506000604051620000589062000139565b90815260200160405180910390209081620000749190620003ca565b506040518060400160405280600a81526020017f43617264696f6c6f6779000000000000000000000000000000000000000000008152506000604051620000bb9062000501565b90815260200160405180910390209081620000d79190620003ca565b5062000518565b600081905092915050565b7f686f73706974616c496400000000000000000000000000000000000000000000600082015250565b600062000121600a83620000de565b91506200012e82620000e9565b600a82019050919050565b6000620001468262000112565b9150819050919050565b600081519050919050565b7f4e487b7100000000000000000000000000000000000000000000000000000000600052604160045260246000fd5b7f4e487b7100000000000000000000000000000000000000000000000000000000600052602260045260246000fd5b60006002820490506001821680620001d257607f821691505b602082108103620001e857620001e76200018a565b5b50919050565b60008190508160005260206000209050919050565b60006020601f8301049050919050565b600082821b905092915050565b600060088302620002527fffffffffffffffffffffffffffffffffffffffffffffffffffffffffffffffff8262000213565b6200025e868362000213565b95508019841693508086168417925050509392505050565b6000819050919050565b6000819050919050565b6000620002ab620002a56200029f8462000276565b62000280565b62000276565b9050919050565b6000819050919050565b620002c7836200028a565b620002df620002d682620002b2565b84845462000220565b825550505050565b600090565b620002f6620002e7565b62000303818484620002bc565b505050565b5b818110156200032b576200031f600082620002ec565b60018101905062000309565b5050565b601f8211156200037a576200034481620001ee565b6200034f8462000203565b810160208510156200035f578190505b620003776200036e8562000203565b83018262000308565b50505b505050565b600082821c905092915050565b60006200039f600019846008026200037f565b1980831691505092915050565b6000620003ba83836200038c565b9150826002028217905092915050565b620003d58262000150565b67ffffffffffffffff811115620003f157620003f06200015b565b5b620003fd8254620001b9565b6200040a8282856200032f565b600060209050601f8311600181146200044257600084156200042d578287015190505b620004398582620003ac565b865550620004a9565b601f1984166200045286620001ee565b60005b828110156200047c5784890151825560018201915060208501945060208101905062000455565b868310156200049c578489015162000498601f8916826200038c565b8355505b6001600288020188555050505b505050505050565b7f7370656369616c697a6174696f6e000000000000000000000000000000000000600082015250565b6000620004e9600e83620000de565b9150620004f682620004b1565b600e82019050919050565b60006200050e82620004da565b9150819050919050565b6115d580620005286000396000f3fe608060405234801561001057600080fd5b50600436106100935760003560e01c8063a7bb580311610066578063a7bb580314610134578063b446f3b214610166578063ce1e462614610196578063fa540801146101b4578063fd167276146101e457610093565b80632dd34f0f1461009857806363ffab31146100c857806391bbdcc7146100e657806397aba7f914610104575b600080fd5b6100b260048036038101906100ad9190610bae565b610200565b6040516100bf9190610c54565b60405180910390f35b6100d061025e565b6040516100dd9190610c7e565b60405180910390f35b6100ee610276565b6040516100fb9190610d18565b60405180910390f35b61011e60048036038101906101199190610d70565b61028c565b60405161012b9190610c7e565b60405180910390f35b61014e60048036038101906101499190610dcc565b6102fb565b60405161015d93929190610e40565b60405180910390f35b610180600480360381019061017b9190610e77565b610363565b60405161018d9190610ec0565b60405180910390f35b61019e610393565b6040516101ab9190610d18565b60405180910390f35b6101ce60048036038101906101c99190610edb565b6103d0565b6040516101db9190610ec0565b60405180910390f35b6101fe60048036038101906101f99190610f08565b610400565b005b60008061020c84610363565b90506000610219826103d0565b90508573ffffffffffffffffffffffffffffffffffffffff1661023c828661028c565b73ffffffffffffffffffffffffffffffffffffffff1614925050509392505050565b737264d9fd1a56d865d8b7d96e5251a6efe820b48381565b6060600033905061028681610650565b91505090565b60008060008061029b856102fb565b925092509250600186828585604051600081526020016040526040516102c49493929190610fdf565b6020604051602081039080840390855afa1580156102e6573d6000803e3d6000fd5b50505060206040510351935050505092915050565b60008060006041845114610344576040517f08c379a000000000000000000000000000000000000000000000000000000000815260040161033b90611070565b60405180910390fd5b6020840151925060408401519150606084015160001a90509193909250565b60008160405160200161037691906110cc565b604051602081830303815290604052805190602001209050919050565b60606040518060400160405280601981526020017f686f73706974616c49642c7370656369616c697a6174696f6e00000000000000815250905090565b6000816040516020016103e39190611150565b604051602081830303815290604052805190602001209050919050565b60011515610444737264d9fd1a56d865d8b7d96e5251a6efe820b483858560405160200161042f9291906111c2565b60405160208183030381529060405284610200565b151514610486576040517f08c379a000000000000000000000000000000000000000000000000000000000815260040161047d9061123d565b60405180910390fd5b60008360405160200161049991906110cc565b6040516020818303038152906040528051906020012060006040516104bd906112a9565b90815260200160405180910390206040516020016104db91906113b6565b6040516020818303038152906040528051906020012014801561056457508260405160200161050a91906110cc565b60405160208183030381529060405280519060200120600060405161052e90611419565b908152602001604051809103902060405160200161054c91906113b6565b60405160208183030381529060405280519060200120145b90506000610570610276565b90506000826105b4576040518060400160405280600581526020017f66616c73650000000000000000000000000000000000000000000000000000008152506105eb565b6040518060400160405280600481526020017f74727565000000000000000000000000000000000000000000000000000000008152505b82886040516020016105ff9392919061147a565b60405160208183030381529060405290507f0d296dbb8bcdfde31faa165965bf6e3983386c6dd968f1947b22137719fdde578160405161063f9190610d18565b60405180910390a150505050505050565b606060008273ffffffffffffffffffffffffffffffffffffffff1660001b905060006040518060400160405280601081526020017f303132333435363738396162636465660000000000000000000000000000000081525090506000602a67ffffffffffffffff8111156106c7576106c66109e2565b5b6040519080825280601f01601f1916602001820160405280156106f95781602001600182028036833780820191505090505b5090507f300000000000000000000000000000000000000000000000000000000000000081600081518110610731576107306114c1565b5b60200101907effffffffffffffffffffffffffffffffffffffffffffffffffffffffffffff1916908160001a9053507f780000000000000000000000000000000000000000000000000000000000000081600181518110610795576107946114c1565b5b60200101907effffffffffffffffffffffffffffffffffffffffffffffffffffffffffffff1916908160001a90535060005b60148110156109495782600485600c846107e19190611529565b602081106107f2576107f16114c1565b5b1a60f81b7effffffffffffffffffffffffffffffffffffffffffffffffffffffffffffff1916901c60f81c60ff1681518110610831576108306114c1565b5b602001015160f81c60f81b8260028361084a919061155d565b60026108569190611529565b81518110610867576108666114c1565b5b60200101907effffffffffffffffffffffffffffffffffffffffffffffffffffffffffffff1916908160001a90535082600f60f81b85600c846108aa9190611529565b602081106108bb576108ba6114c1565b5b1a60f81b1660f81c60ff16815181106108d7576108d66114c1565b5b602001015160f81c60f81b826002836108f0919061155d565b60036108fc9190611529565b8151811061090d5761090c6114c1565b5b60200101907effffffffffffffffffffffffffffffffffffffffffffffffffffffffffffff1916908160001a90535080806001019150506107c7565b50809350505050919050565b6000604051905090565b600080fd5b600080fd5b600073ffffffffffffffffffffffffffffffffffffffff82169050919050565b600061099482610969565b9050919050565b6109a481610989565b81146109af57600080fd5b50565b6000813590506109c18161099b565b92915050565b600080fd5b600080fd5b6000601f19601f8301169050919050565b7f4e487b7100000000000000000000000000000000000000000000000000000000600052604160045260246000fd5b610a1a826109d1565b810181811067ffffffffffffffff82111715610a3957610a386109e2565b5b80604052505050565b6000610a4c610955565b9050610a588282610a11565b919050565b600067ffffffffffffffff821115610a7857610a776109e2565b5b610a81826109d1565b9050602081019050919050565b82818337600083830152505050565b6000610ab0610aab84610a5d565b610a42565b905082815260208101848484011115610acc57610acb6109cc565b5b610ad7848285610a8e565b509392505050565b600082601f830112610af457610af36109c7565b5b8135610b04848260208601610a9d565b91505092915050565b600067ffffffffffffffff821115610b2857610b276109e2565b5b610b31826109d1565b9050602081019050919050565b6000610b51610b4c84610b0d565b610a42565b905082815260208101848484011115610b6d57610b6c6109cc565b5b610b78848285610a8e565b509392505050565b600082601f830112610b9557610b946109c7565b5b8135610ba5848260208601610b3e565b91505092915050565b600080600060608486031215610bc757610bc661095f565b5b6000610bd5868287016109b2565b935050602084013567ffffffffffffffff811115610bf657610bf5610964565b5b610c0286828701610adf565b925050604084013567ffffffffffffffff811115610c2357610c22610964565b5b610c2f86828701610b80565b9150509250925092565b60008115159050919050565b610c4e81610c39565b82525050565b6000602082019050610c696000830184610c45565b92915050565b610c7881610989565b82525050565b6000602082019050610c936000830184610c6f565b92915050565b600081519050919050565b600082825260208201905092915050565b60005b83811015610cd3578082015181840152602081019050610cb8565b60008484015250505050565b6000610cea82610c99565b610cf48185610ca4565b9350610d04818560208601610cb5565b610d0d816109d1565b840191505092915050565b60006020820190508181036000830152610d328184610cdf565b905092915050565b6000819050919050565b610d4d81610d3a565b8114610d5857600080fd5b50565b600081359050610d6a81610d44565b92915050565b60008060408385031215610d8757610d8661095f565b5b6000610d9585828601610d5b565b925050602083013567ffffffffffffffff811115610db657610db5610964565b5b610dc285828601610b80565b9150509250929050565b600060208284031215610de257610de161095f565b5b600082013567ffffffffffffffff811115610e0057610dff610964565b5b610e0c84828501610b80565b91505092915050565b610e1e81610d3a565b82525050565b600060ff82169050919050565b610e3a81610e24565b82525050565b6000606082019050610e556000830186610e15565b610e626020830185610e15565b610e6f6040830184610e31565b949350505050565b600060208284031215610e8d57610e8c61095f565b5b600082013567ffffffffffffffff811115610eab57610eaa610964565b5b610eb784828501610adf565b91505092915050565b6000602082019050610ed56000830184610e15565b92915050565b600060208284031215610ef157610ef061095f565b5b6000610eff84828501610d5b565b91505092915050565b60008060008060808587031215610f2257610f2161095f565b5b600085013567ffffffffffffffff811115610f4057610f3f610964565b5b610f4c87828801610adf565b945050602085013567ffffffffffffffff811115610f6d57610f6c610964565b5b610f7987828801610adf565b935050604085013567ffffffffffffffff811115610f9a57610f99610964565b5b610fa687828801610adf565b925050606085013567ffffffffffffffff811115610fc757610fc6610964565b5b610fd387828801610b80565b91505092959194509250565b6000608082019050610ff46000830187610e15565b6110016020830186610e31565b61100e6040830185610e15565b61101b6060830184610e15565b95945050505050565b7f696e76616c6964207369676e6174757265206c656e6774680000000000000000600082015250565b600061105a601883610ca4565b915061106582611024565b602082019050919050565b600060208201905081810360008301526110898161104d565b9050919050565b600081905092915050565b60006110a682610c99565b6110b08185611090565b93506110c0818560208601610cb5565b80840191505092915050565b60006110d8828461109b565b915081905092915050565b7f19457468657265756d205369676e6564204d6573736167653a0a333200000000600082015250565b6000611119601c83611090565b9150611124826110e3565b601c82019050919050565b6000819050919050565b61114a61114582610d3a565b61112f565b82525050565b600061115b8261110c565b91506111678284611139565b60208201915081905092915050565b7f2c20000000000000000000000000000000000000000000000000000000000000600082015250565b60006111ac600283611090565b91506111b782611176565b600282019050919050565b60006111ce828561109b565b91506111d98261119f565b91506111e5828461109b565b91508190509392505050565b7f496e76616c6964207369676e6174757265000000000000000000000000000000600082015250565b6000611227601183610ca4565b9150611232826111f1565b602082019050919050565b600060208201905081810360008301526112568161121a565b9050919050565b7f686f73706974616c496400000000000000000000000000000000000000000000600082015250565b6000611293600a83611090565b915061129e8261125d565b600a82019050919050565b60006112b482611286565b9150819050919050565b7f4e487b7100000000000000000000000000000000000000000000000000000000600052602260045260246000fd5b6000600282049050600182168061130557607f821691505b602082108103611318576113176112be565b5b50919050565b60008190508160005260206000209050919050565b60008154611340816112ed565b61134a8186611090565b94506001821660008114611365576001811461137a576113ad565b60ff19831686528115158202860193506113ad565b6113838561131e565b60005b838110156113a557815481890152600182019150602081019050611386565b838801955050505b50505092915050565b60006113c28284611333565b915081905092915050565b7f7370656369616c697a6174696f6e000000000000000000000000000000000000600082015250565b6000611403600e83611090565b915061140e826113cd565b600e82019050919050565b6000611424826113f6565b9150819050919050565b7f3a00000000000000000000000000000000000000000000000000000000000000600082015250565b6000611464600183611090565b915061146f8261142e565b600182019050919050565b6000611486828661109b565b915061149182611457565b915061149d828561109b565b91506114a882611457565b91506114b4828461109b565b9150819050949350505050565b7f4e487b7100000000000000000000000000000000000000000000000000000000600052603260045260246000fd5b6000819050919050565b7f4e487b7100000000000000000000000000000000000000000000000000000000600052601160045260246000fd5b6000611534826114f0565b915061153f836114f0565b9250828201905080821115611557576115566114fa565b5b92915050565b6000611568826114f0565b9150611573836114f0565b9250828202611581816114f0565b91508282048414831517611598576115976114fa565b5b509291505056fea2646970667358221220676d8189c832441cc86ed0a7c5cbb18499de6b17504af013e34e3eee3052018664736f6c63430008180033","opcodes":"PUSH1 0x80 PUSH1 0x40 MSTORE CALLVALUE DUP1 ISZERO PUSH3 0x11 JUMPI PUSH1 0x0 DUP1 REVERT JUMPDEST POP PUSH1 0x40 MLOAD DUP1 PUSH1 0x40 ADD PUSH1 0x40 MSTORE DUP1 PUSH1 0x9 DUP2 MSTORE PUSH1 0x20 ADD PUSH32 0x486F73706974616C410000000000000000000000000000000000000000000000 DUP2 MSTORE POP PUSH1 0x0 PUSH1 0x40 MLOAD PUSH3 0x58 SWAP1 PUSH3 0x139 JUMP JUMPDEST SWAP1 DUP2 MSTORE PUSH1 0x20 ADD PUSH1 0x40 MLOAD DUP1 SWAP2 SUB SWAP1 KECCAK256 SWAP1 DUP2 PUSH3 0x74 SWAP2 SWAP1 PUSH3 0x3CA JUMP JUMPDEST POP PUSH1 0x40 MLOAD DUP1 PUSH1 0x40 ADD PUSH1 0x40 MSTORE DUP1 PUSH1 0xA DUP2 MSTORE PUSH1 0x20 ADD PUSH32 0x43617264696F6C6F677900000000000000000000000000000000000000000000 DUP2 MSTORE POP PUSH1 0x0 PUSH1 0x40 MLOAD PUSH3 0xBB SWAP1 PUSH3 0x501 JUMP JUMPDEST SWAP1 DUP2 MSTORE PUSH1 0x20 ADD PUSH1 0x40 MLOAD DUP1 SWAP2 SUB SWAP1 KECCAK256 SWAP1 DUP2 PUSH3 0xD7 SWAP2 SWAP1 PUSH3 0x3CA JUMP JUMPDEST POP PUSH3 0x518 JUMP JUMPDEST PUSH1 0x0 DUP2 SWAP1 POP SWAP3 SWAP2 POP POP JUMP JUMPDEST PUSH32 0x686F73706974616C496400000000000000000000000000000000000000000000 PUSH1 0x0 DUP3 ADD MSTORE POP JUMP JUMPDEST PUSH1 0x0 PUSH3 0x121 PUSH1 0xA DUP4 PUSH3 0xDE JUMP JUMPDEST SWAP2 POP PUSH3 0x12E DUP3 PUSH3 0xE9 JUMP JUMPDEST PUSH1 0xA DUP3 ADD SWAP1 POP SWAP2 SWAP1 POP JUMP JUMPDEST PUSH1 0x0 PUSH3 0x146 DUP3 PUSH3 0x112 JUMP JUMPDEST SWAP2 POP DUP2 SWAP1 POP SWAP2 SWAP1 POP JUMP JUMPDEST PUSH1 0x0 DUP2 MLOAD SWAP1 POP SWAP2 SWAP1 POP JUMP JUMPDEST PUSH32 0x4E487B7100000000000000000000000000000000000000000000000000000000 PUSH1 0x0 MSTORE PUSH1 0x41 PUSH1 0x4 MSTORE PUSH1 0x24 PUSH1 0x0 REVERT JUMPDEST PUSH32 0x4E487B7100000000000000000000000000000000000000000000000000000000 PUSH1 0x0 MSTORE PUSH1 0x22 PUSH1 0x4 MSTORE PUSH1 0x24 PUSH1 0x0 REVERT JUMPDEST PUSH1 0x0 PUSH1 0x2 DUP3 DIV SWAP1 POP PUSH1 0x1 DUP3 AND DUP1 PUSH3 0x1D2 JUMPI PUSH1 0x7F DUP3 AND SWAP2 POP JUMPDEST PUSH1 0x20 DUP3 LT DUP2 SUB PUSH3 0x1E8 JUMPI PUSH3 0x1E7 PUSH3 0x18A JUMP JUMPDEST JUMPDEST POP SWAP2 SWAP1 POP JUMP JUMPDEST PUSH1 0x0 DUP2 SWAP1 POP DUP2 PUSH1 0x0 MSTORE PUSH1 0x20 PUSH1 0x0 KECCAK256 SWAP1 POP SWAP2 SWAP1 POP JUMP JUMPDEST PUSH1 0x0 PUSH1 0x20 PUSH1 0x1F DUP4 ADD DIV SWAP1 POP SWAP2 SWAP1 POP JUMP JUMPDEST PUSH1 0x0 DUP3 DUP3 SHL SWAP1 POP SWAP3 SWAP2 POP POP JUMP JUMPDEST PUSH1 0x0 PUSH1 0x8 DUP4 MUL PUSH3 0x252 PUSH32 0xFFFFFFFFFFFFFFFFFFFFFFFFFFFFFFFFFFFFFFFFFFFFFFFFFFFFFFFFFFFFFFFF DUP3 PUSH3 0x213 JUMP JUMPDEST PUSH3 0x25E DUP7 DUP4 PUSH3 0x213 JUMP JUMPDEST SWAP6 POP DUP1 NOT DUP5 AND SWAP4 POP DUP1 DUP7 AND DUP5 OR SWAP3 POP POP POP SWAP4 SWAP3 POP POP POP JUMP JUMPDEST PUSH1 0x0 DUP2 SWAP1 POP SWAP2 SWAP1 POP JUMP JUMPDEST PUSH1 0x0 DUP2 SWAP1 POP SWAP2 SWAP1 POP JUMP JUMPDEST PUSH1 0x0 PUSH3 0x2AB PUSH3 0x2A5 PUSH3 0x29F DUP5 PUSH3 0x276 JUMP JUMPDEST PUSH3 0x280 JUMP JUMPDEST PUSH3 0x276 JUMP JUMPDEST SWAP1 POP SWAP2 SWAP1 POP JUMP JUMPDEST PUSH1 0x0 DUP2 SWAP1 POP SWAP2 SWAP1 POP JUMP JUMPDEST PUSH3 0x2C7 DUP4 PUSH3 0x28A JUMP JUMPDEST PUSH3 0x2DF PUSH3 0x2D6 DUP3 PUSH3 0x2B2 JUMP JUMPDEST DUP5 DUP5 SLOAD PUSH3 0x220 JUMP JUMPDEST DUP3 SSTORE POP POP POP POP JUMP JUMPDEST PUSH1 0x0 SWAP1 JUMP JUMPDEST PUSH3 0x2F6 PUSH3 0x2E7 JUMP JUMPDEST PUSH3 0x303 DUP2 DUP5 DUP5 PUSH3 0x2BC JUMP JUMPDEST POP POP POP JUMP JUMPDEST JUMPDEST DUP2 DUP2 LT ISZERO PUSH3 0x32B JUMPI PUSH3 0x31F PUSH1 0x0 DUP3 PUSH3 0x2EC JUMP JUMPDEST PUSH1 0x1 DUP2 ADD SWAP1 POP PUSH3 0x309 JUMP JUMPDEST POP POP JUMP JUMPDEST PUSH1 0x1F DUP3 GT ISZERO PUSH3 0x37A JUMPI PUSH3 0x344 DUP2 PUSH3 0x1EE JUMP JUMPDEST PUSH3 0x34F DUP5 PUSH3 0x203 JUMP JUMPDEST DUP2 ADD PUSH1 0x20 DUP6 LT ISZERO PUSH3 0x35F JUMPI DUP2 SWAP1 POP JUMPDEST PUSH3 0x377 PUSH3 0x36E DUP6 PUSH3 0x203 JUMP JUMPDEST DUP4 ADD DUP3 PUSH3 0x308 JUMP JUMPDEST POP POP JUMPDEST POP POP POP JUMP JUMPDEST PUSH1 0x0 DUP3 DUP3 SHR SWAP1 POP SWAP3 SWAP2 POP POP JUMP JUMPDEST PUSH1 0x0 PUSH3 0x39F PUSH1 0x0 NOT DUP5 PUSH1 0x8 MUL PUSH3 0x37F JUMP JUMPDEST NOT DUP1 DUP4 AND SWAP2 POP POP SWAP3 SWAP2 POP POP JUMP JUMPDEST PUSH1 0x0 PUSH3 0x3BA DUP4 DUP4 PUSH3 0x38C JUMP JUMPDEST SWAP2 POP DUP3 PUSH1 0x2 MUL DUP3 OR SWAP1 POP SWAP3 SWAP2 POP POP JUMP JUMPDEST PUSH3 0x3D5 DUP3 PUSH3 0x150 JUMP JUMPDEST PUSH8 0xFFFFFFFFFFFFFFFF DUP2 GT ISZERO PUSH3 0x3F1 JUMPI PUSH3 0x3F0 PUSH3 0x15B JUMP JUMPDEST JUMPDEST PUSH3 0x3FD DUP3 SLOAD PUSH3 0x1B9 JUMP JUMPDEST PUSH3 0x40A DUP3 DUP3 DUP6 PUSH3 0x32F JUMP JUMPDEST PUSH1 0x0 PUSH1 0x20 SWAP1 POP PUSH1 0x1F DUP4 GT PUSH1 0x1 DUP2 EQ PUSH3 0x442 JUMPI PUSH1 0x0 DUP5 ISZERO PUSH3 0x42D JUMPI DUP3 DUP8 ADD MLOAD SWAP1 POP JUMPDEST PUSH3 0x439 DUP6 DUP3 PUSH3 0x3AC JUMP JUMPDEST DUP7 SSTORE POP PUSH3 0x4A9 JUMP JUMPDEST PUSH1 0x1F NOT DUP5 AND PUSH3 0x452 DUP7 PUSH3 0x1EE JUMP JUMPDEST PUSH1 0x0 JUMPDEST DUP3 DUP2 LT ISZERO PUSH3 0x47C JUMPI DUP5 DUP10 ADD MLOAD DUP3 SSTORE PUSH1 0x1 DUP3 ADD SWAP2 POP PUSH1 0x20 DUP6 ADD SWAP5 POP PUSH1 0x20 DUP2 ADD SWAP1 POP PUSH3 0x455 JUMP JUMPDEST DUP7 DUP4 LT ISZERO PUSH3 0x49C JUMPI DUP5 DUP10 ADD MLOAD PUSH3 0x498 PUSH1 0x1F DUP10 AND DUP3 PUSH3 0x38C JUMP JUMPDEST DUP4 SSTORE POP JUMPDEST PUSH1 0x1 PUSH1 0x2 DUP9 MUL ADD DUP9 SSTORE POP POP POP JUMPDEST POP POP POP POP POP POP JUMP JUMPDEST PUSH32 0x7370656369616C697A6174696F6E000000000000000000000000000000000000 PUSH1 0x0 DUP3 ADD MSTORE POP JUMP JUMPDEST PUSH1 0x0 PUSH3 0x4E9 PUSH1 0xE DUP4 PUSH3 0xDE JUMP JUMPDEST SWAP2 POP PUSH3 0x4F6 DUP3 PUSH3 0x4B1 JUMP JUMPDEST PUSH1 0xE DUP3 ADD SWAP1 POP SWAP2 SWAP1 POP JUMP JUMPDEST PUSH1 0x0 PUSH3 0x50E DUP3 PUSH3 0x4DA JUMP JUMPDEST SWAP2 POP DUP2 SWAP1 POP SWAP2 SWAP1 POP JUMP JUMPDEST PUSH2 0x15D5 DUP1 PUSH3 0x528 PUSH1 0x0 CODECOPY PUSH1 0x0 RETURN INVALID PUSH1 0x80 PUSH1 0x40 MSTORE CALLVALUE DUP1 ISZERO PUSH2 0x10 JUMPI PUSH1 0x0 DUP1 REVERT JUMPDEST POP PUSH1 0x4 CALLDATASIZE LT PUSH2 0x93 JUMPI PUSH1 0x0 CALLDATALOAD PUSH1 0xE0 SHR DUP1 PUSH4 0xA7BB5803 GT PUSH2 0x66 JUMPI DUP1 PUSH4 0xA7BB5803 EQ PUSH2 0x134 JUMPI DUP1 PUSH4 0xB446F3B2 EQ PUSH2 0x166 JUMPI DUP1 PUSH4 0xCE1E4626 EQ PUSH2 0x196 JUMPI DUP1 PUSH4 0xFA540801 EQ PUSH2 0x1B4 JUMPI DUP1 PUSH4 0xFD167276 EQ PUSH2 0x1E4 JUMPI PUSH2 0x93 JUMP JUMPDEST DUP1 PUSH4 0x2DD34F0F EQ PUSH2 0x98 JUMPI DUP1 PUSH4 0x63FFAB31 EQ PUSH2 0xC8 JUMPI DUP1 PUSH4 0x91BBDCC7 EQ PUSH2 0xE6 JUMPI DUP1 PUSH4 0x97ABA7F9 EQ PUSH2 0x104 JUMPI JUMPDEST PUSH1 0x0 DUP1 REVERT JUMPDEST PUSH2 0xB2 PUSH1 0x4 DUP1 CALLDATASIZE SUB DUP2 ADD SWAP1 PUSH2 0xAD SWAP2 SWAP1 PUSH2 0xBAE JUMP JUMPDEST PUSH2 0x200 JUMP JUMPDEST PUSH1 0x40 MLOAD PUSH2 0xBF SWAP2 SWAP1 PUSH2 0xC54 JUMP JUMPDEST PUSH1 0x40 MLOAD DUP1 SWAP2 SUB SWAP1 RETURN JUMPDEST PUSH2 0xD0 PUSH2 0x25E JUMP JUMPDEST PUSH1 0x40 MLOAD PUSH2 0xDD SWAP2 SWAP1 PUSH2 0xC7E JUMP JUMPDEST PUSH1 0x40 MLOAD DUP1 SWAP2 SUB SWAP1 RETURN JUMPDEST PUSH2 0xEE PUSH2 0x276 JUMP JUMPDEST PUSH1 0x40 MLOAD PUSH2 0xFB SWAP2 SWAP1 PUSH2 0xD18 JUMP JUMPDEST PUSH1 0x40 MLOAD DUP1 SWAP2 SUB SWAP1 RETURN JUMPDEST PUSH2 0x11E PUSH1 0x4 DUP1 CALLDATASIZE SUB DUP2 ADD SWAP1 PUSH2 0x119 SWAP2 SWAP1 PUSH2 0xD70 JUMP JUMPDEST PUSH2 0x28C JUMP JUMPDEST PUSH1 0x40 MLOAD PUSH2 0x12B SWAP2 SWAP1 PUSH2 0xC7E JUMP JUMPDEST PUSH1 0x40 MLOAD DUP1 SWAP2 SUB SWAP1 RETURN JUMPDEST PUSH2 0x14E PUSH1 0x4 DUP1 CALLDATASIZE SUB DUP2 ADD SWAP1 PUSH2 0x149 SWAP2 SWAP1 PUSH2 0xDCC JUMP JUMPDEST PUSH2 0x2FB JUMP JUMPDEST PUSH1 0x40 MLOAD PUSH2 0x15D SWAP4 SWAP3 SWAP2 SWAP1 PUSH2 0xE40 JUMP JUMPDEST PUSH1 0x40 MLOAD DUP1 SWAP2 SUB SWAP1 RETURN JUMPDEST PUSH2 0x180 PUSH1 0x4 DUP1 CALLDATASIZE SUB DUP2 ADD SWAP1 PUSH2 0x17B SWAP2 SWAP1 PUSH2 0xE77 JUMP JUMPDEST PUSH2 0x363 JUMP JUMPDEST PUSH1 0x40 MLOAD PUSH2 0x18D SWAP2 SWAP1 PUSH2 0xEC0 JUMP JUMPDEST PUSH1 0x40 MLOAD DUP1 SWAP2 SUB SWAP1 RETURN JUMPDEST PUSH2 0x19E PUSH2 0x393 JUMP JUMPDEST PUSH1 0x40 MLOAD PUSH2 0x1AB SWAP2 SWAP1 PUSH2 0xD18 JUMP JUMPDEST PUSH1 0x40 MLOAD DUP1 SWAP2 SUB SWAP1 RETURN JUMPDEST PUSH2 0x1CE PUSH1 0x4 DUP1 CALLDATASIZE SUB DUP2 ADD SWAP1 PUSH2 0x1C9 SWAP2 SWAP1 PUSH2 0xEDB JUMP JUMPDEST PUSH2 0x3D0 JUMP JUMPDEST PUSH1 0x40 MLOAD PUSH2 0x1DB SWAP2 SWAP1 PUSH2 0xEC0 JUMP JUMPDEST PUSH1 0x40 MLOAD DUP1 SWAP2 SUB SWAP1 RETURN JUMPDEST PUSH2 0x1FE PUSH1 0x4 DUP1 CALLDATASIZE SUB DUP2 ADD SWAP1 PUSH2 0x1F9 SWAP2 SWAP1 PUSH2 0xF08 JUMP JUMPDEST PUSH2 0x400 JUMP JUMPDEST STOP JUMPDEST PUSH1 0x0 DUP1 PUSH2 0x20C DUP5 PUSH2 0x363 JUMP JUMPDEST SWAP1 POP PUSH1 0x0 PUSH2 0x219 DUP3 PUSH2 0x3D0 JUMP JUMPDEST SWAP1 POP DUP6 PUSH20 0xFFFFFFFFFFFFFFFFFFFFFFFFFFFFFFFFFFFFFFFF AND PUSH2 0x23C DUP3 DUP7 PUSH2 0x28C JUMP JUMPDEST PUSH20 0xFFFFFFFFFFFFFFFFFFFFFFFFFFFFFFFFFFFFFFFF AND EQ SWAP3 POP POP POP SWAP4 SWAP3 POP POP POP JUMP JUMPDEST PUSH20 0x7264D9FD1A56D865D8B7D96E5251A6EFE820B483 DUP2 JUMP JUMPDEST PUSH1 0x60 PUSH1 0x0 CALLER SWAP1 POP PUSH2 0x286 DUP2 PUSH2 0x650 JUMP JUMPDEST SWAP2 POP POP SWAP1 JUMP JUMPDEST PUSH1 0x0 DUP1 PUSH1 0x0 DUP1 PUSH2 0x29B DUP6 PUSH2 0x2FB JUMP JUMPDEST SWAP3 POP SWAP3 POP SWAP3 POP PUSH1 0x1 DUP7 DUP3 DUP6 DUP6 PUSH1 0x40 MLOAD PUSH1 0x0 DUP2 MSTORE PUSH1 0x20 ADD PUSH1 0x40 MSTORE PUSH1 0x40 MLOAD PUSH2 0x2C4 SWAP5 SWAP4 SWAP3 SWAP2 SWAP1 PUSH2 0xFDF JUMP JUMPDEST PUSH1 0x20 PUSH1 0x40 MLOAD PUSH1 0x20 DUP2 SUB SWAP1 DUP1 DUP5 SUB SWAP1 DUP6 GAS STATICCALL ISZERO DUP1 ISZERO PUSH2 0x2E6 JUMPI RETURNDATASIZE PUSH1 0x0 DUP1 RETURNDATACOPY RETURNDATASIZE PUSH1 0x0 REVERT JUMPDEST POP POP POP PUSH1 0x20 PUSH1 0x40 MLOAD SUB MLOAD SWAP4 POP POP POP POP SWAP3 SWAP2 POP POP JUMP JUMPDEST PUSH1 0x0 DUP1 PUSH1 0x0 PUSH1 0x41 DUP5 MLOAD EQ PUSH2 0x344 JUMPI PUSH1 0x40 MLOAD PUSH32 0x8C379A000000000000000000000000000000000000000000000000000000000 DUP2 MSTORE PUSH1 0x4 ADD PUSH2 0x33B SWAP1 PUSH2 0x1070 JUMP JUMPDEST PUSH1 0x40 MLOAD DUP1 SWAP2 SUB SWAP1 REVERT JUMPDEST PUSH1 0x20 DUP5 ADD MLOAD SWAP3 POP PUSH1 0x40 DUP5 ADD MLOAD SWAP2 POP PUSH1 0x60 DUP5 ADD MLOAD PUSH1 0x0 BYTE SWAP1 POP SWAP2 SWAP4 SWAP1 SWAP3 POP JUMP JUMPDEST PUSH1 0x0 DUP2 PUSH1 0x40 MLOAD PUSH1 0x20 ADD PUSH2 0x376 SWAP2 SWAP1 PUSH2 0x10CC JUMP JUMPDEST PUSH1 0x40 MLOAD PUSH1 0x20 DUP2 DUP4 SUB SUB DUP2 MSTORE SWAP1 PUSH1 0x40 MSTORE DUP1 MLOAD SWAP1 PUSH1 0x20 ADD KECCAK256 SWAP1 POP SWAP2 SWAP1 POP JUMP JUMPDEST PUSH1 0x60 PUSH1 0x40 MLOAD DUP1 PUSH1 0x40 ADD PUSH1 0x40 MSTORE DUP1 PUSH1 0x19 DUP2 MSTORE PUSH1 0x20 ADD PUSH32 0x686F73706974616C49642C7370656369616C697A6174696F6E00000000000000 DUP2 MSTORE POP SWAP1 POP SWAP1 JUMP JUMPDEST PUSH1 0x0 DUP2 PUSH1 0x40 MLOAD PUSH1 0x20 ADD PUSH2 0x3E3 SWAP2 SWAP1 PUSH2 0x1150 JUMP JUMPDEST PUSH1 0x40 MLOAD PUSH1 0x20 DUP2 DUP4 SUB SUB DUP2 MSTORE SWAP1 PUSH1 0x40 MSTORE DUP1 MLOAD SWAP1 PUSH1 0x20 ADD KECCAK256 SWAP1 POP SWAP2 SWAP1 POP JUMP JUMPDEST PUSH1 0x1 ISZERO ISZERO PUSH2 0x444 PUSH20 0x7264D9FD1A56D865D8B7D96E5251A6EFE820B483 DUP6 DUP6 PUSH1 0x40 MLOAD PUSH1 0x20 ADD PUSH2 0x42F SWAP3 SWAP2 SWAP1 PUSH2 0x11C2 JUMP JUMPDEST PUSH1 0x40 MLOAD PUSH1 0x20 DUP2 DUP4 SUB SUB DUP2 MSTORE SWAP1 PUSH1 0x40 MSTORE DUP5 PUSH2 0x200 JUMP JUMPDEST ISZERO ISZERO EQ PUSH2 0x486 JUMPI PUSH1 0x40 MLOAD PUSH32 0x8C379A000000000000000000000000000000000000000000000000000000000 DUP2 MSTORE PUSH1 0x4 ADD PUSH2 0x47D SWAP1 PUSH2 0x123D JUMP JUMPDEST PUSH1 0x40 MLOAD DUP1 SWAP2 SUB SWAP1 REVERT JUMPDEST PUSH1 0x0 DUP4 PUSH1 0x40 MLOAD PUSH1 0x20 ADD PUSH2 0x499 SWAP2 SWAP1 PUSH2 0x10CC JUMP JUMPDEST PUSH1 0x40 MLOAD PUSH1 0x20 DUP2 DUP4 SUB SUB DUP2 MSTORE SWAP1 PUSH1 0x40 MSTORE DUP1 MLOAD SWAP1 PUSH1 0x20 ADD KECCAK256 PUSH1 0x0 PUSH1 0x40 MLOAD PUSH2 0x4BD SWAP1 PUSH2 0x12A9 JUMP JUMPDEST SWAP1 DUP2 MSTORE PUSH1 0x20 ADD PUSH1 0x40 MLOAD DUP1 SWAP2 SUB SWAP1 KECCAK256 PUSH1 0x40 MLOAD PUSH1 0x20 ADD PUSH2 0x4DB SWAP2 SWAP1 PUSH2 0x13B6 JUMP JUMPDEST PUSH1 0x40 MLOAD PUSH1 0x20 DUP2 DUP4 SUB SUB DUP2 MSTORE SWAP1 PUSH1 0x40 MSTORE DUP1 MLOAD SWAP1 PUSH1 0x20 ADD KECCAK256 EQ DUP1 ISZERO PUSH2 0x564 JUMPI POP DUP3 PUSH1 0x40 MLOAD PUSH1 0x20 ADD PUSH2 0x50A SWAP2 SWAP1 PUSH2 0x10CC JUMP JUMPDEST PUSH1 0x40 MLOAD PUSH1 0x20 DUP2 DUP4 SUB SUB DUP2 MSTORE SWAP1 PUSH1 0x40 MSTORE DUP1 MLOAD SWAP1 PUSH1 0x20 ADD KECCAK256 PUSH1 0x0 PUSH1 0x40 MLOAD PUSH2 0x52E SWAP1 PUSH2 0x1419 JUMP JUMPDEST SWAP1 DUP2 MSTORE PUSH1 0x20 ADD PUSH1 0x40 MLOAD DUP1 SWAP2 SUB SWAP1 KECCAK256 PUSH1 0x40 MLOAD PUSH1 0x20 ADD PUSH2 0x54C SWAP2 SWAP1 PUSH2 0x13B6 JUMP JUMPDEST PUSH1 0x40 MLOAD PUSH1 0x20 DUP2 DUP4 SUB SUB DUP2 MSTORE SWAP1 PUSH1 0x40 MSTORE DUP1 MLOAD SWAP1 PUSH1 0x20 ADD KECCAK256 EQ JUMPDEST SWAP1 POP PUSH1 0x0 PUSH2 0x570 PUSH2 0x276 JUMP JUMPDEST SWAP1 POP PUSH1 0x0 DUP3 PUSH2 0x5B4 JUMPI PUSH1 0x40 MLOAD DUP1 PUSH1 0x40 ADD PUSH1 0x40 MSTORE DUP1 PUSH1 0x5 DUP2 MSTORE PUSH1 0x20 ADD PUSH32 0x66616C7365000000000000000000000000000000000000000000000000000000 DUP2 MSTORE POP PUSH2 0x5EB JUMP JUMPDEST PUSH1 0x40 MLOAD DUP1 PUSH1 0x40 ADD PUSH1 0x40 MSTORE DUP1 PUSH1 0x4 DUP2 MSTORE PUSH1 0x20 ADD PUSH32 0x7472756500000000000000000000000000000000000000000000000000000000 DUP2 MSTORE POP JUMPDEST DUP3 DUP9 PUSH1 0x40 MLOAD PUSH1 0x20 ADD PUSH2 0x5FF SWAP4 SWAP3 SWAP2 SWAP1 PUSH2 0x147A JUMP JUMPDEST PUSH1 0x40 MLOAD PUSH1 0x20 DUP2 DUP4 SUB SUB DUP2 MSTORE SWAP1 PUSH1 0x40 MSTORE SWAP1 POP PUSH32 0xD296DBB8BCDFDE31FAA165965BF6E3983386C6DD968F1947B22137719FDDE57 DUP2 PUSH1 0x40 MLOAD PUSH2 0x63F SWAP2 SWAP1 PUSH2 0xD18 JUMP JUMPDEST PUSH1 0x40 MLOAD DUP1 SWAP2 SUB SWAP1 LOG1 POP POP POP POP POP POP POP JUMP JUMPDEST PUSH1 0x60 PUSH1 0x0 DUP3 PUSH20 0xFFFFFFFFFFFFFFFFFFFFFFFFFFFFFFFFFFFFFFFF AND PUSH1 0x0 SHL SWAP1 POP PUSH1 0x0 PUSH1 0x40 MLOAD DUP1 PUSH1 0x40 ADD PUSH1 0x40 MSTORE DUP1 PUSH1 0x10 DUP2 MSTORE PUSH1 0x20 ADD PUSH32 0x3031323334353637383961626364656600000000000000000000000000000000 DUP2 MSTORE POP SWAP1 POP PUSH1 0x0 PUSH1 0x2A PUSH8 0xFFFFFFFFFFFFFFFF DUP2 GT ISZERO PUSH2 0x6C7 JUMPI PUSH2 0x6C6 PUSH2 0x9E2 JUMP JUMPDEST JUMPDEST PUSH1 0x40 MLOAD SWAP1 DUP1 DUP3 MSTORE DUP1 PUSH1 0x1F ADD PUSH1 0x1F NOT AND PUSH1 0x20 ADD DUP3 ADD PUSH1 0x40 MSTORE DUP1 ISZERO PUSH2 0x6F9 JUMPI DUP2 PUSH1 0x20 ADD PUSH1 0x1 DUP3 MUL DUP1 CALLDATASIZE DUP4 CALLDATACOPY DUP1 DUP3 ADD SWAP2 POP POP SWAP1 POP JUMPDEST POP SWAP1 POP PUSH32 0x3000000000000000000000000000000000000000000000000000000000000000 DUP2 PUSH1 0x0 DUP2 MLOAD DUP2 LT PUSH2 0x731 JUMPI PUSH2 0x730 PUSH2 0x14C1 JUMP JUMPDEST JUMPDEST PUSH1 0x20 ADD ADD SWAP1 PUSH31 0xFFFFFFFFFFFFFFFFFFFFFFFFFFFFFFFFFFFFFFFFFFFFFFFFFFFFFFFFFFFFFF NOT AND SWAP1 DUP2 PUSH1 0x0 BYTE SWAP1 MSTORE8 POP PUSH32 0x7800000000000000000000000000000000000000000000000000000000000000 DUP2 PUSH1 0x1 DUP2 MLOAD DUP2 LT PUSH2 0x795 JUMPI PUSH2 0x794 PUSH2 0x14C1 JUMP JUMPDEST JUMPDEST PUSH1 0x20 ADD ADD SWAP1 PUSH31 0xFFFFFFFFFFFFFFFFFFFFFFFFFFFFFFFFFFFFFFFFFFFFFFFFFFFFFFFFFFFFFF NOT AND SWAP1 DUP2 PUSH1 0x0 BYTE SWAP1 MSTORE8 POP PUSH1 0x0 JUMPDEST PUSH1 0x14 DUP2 LT ISZERO PUSH2 0x949 JUMPI DUP3 PUSH1 0x4 DUP6 PUSH1 0xC DUP5 PUSH2 0x7E1 SWAP2 SWAP1 PUSH2 0x1529 JUMP JUMPDEST PUSH1 0x20 DUP2 LT PUSH2 0x7F2 JUMPI PUSH2 0x7F1 PUSH2 0x14C1 JUMP JUMPDEST JUMPDEST BYTE PUSH1 0xF8 SHL PUSH31 0xFFFFFFFFFFFFFFFFFFFFFFFFFFFFFFFFFFFFFFFFFFFFFFFFFFFFFFFFFFFFFF NOT AND SWAP1 SHR PUSH1 0xF8 SHR PUSH1 0xFF AND DUP2 MLOAD DUP2 LT PUSH2 0x831 JUMPI PUSH2 0x830 PUSH2 0x14C1 JUMP JUMPDEST JUMPDEST PUSH1 0x20 ADD ADD MLOAD PUSH1 0xF8 SHR PUSH1 0xF8 SHL DUP3 PUSH1 0x2 DUP4 PUSH2 0x84A SWAP2 SWAP1 PUSH2 0x155D JUMP JUMPDEST PUSH1 0x2 PUSH2 0x856 SWAP2 SWAP1 PUSH2 0x1529 JUMP JUMPDEST DUP2 MLOAD DUP2 LT PUSH2 0x867 JUMPI PUSH2 0x866 PUSH2 0x14C1 JUMP JUMPDEST JUMPDEST PUSH1 0x20 ADD ADD SWAP1 PUSH31 0xFFFFFFFFFFFFFFFFFFFFFFFFFFFFFFFFFFFFFFFFFFFFFFFFFFFFFFFFFFFFFF NOT AND SWAP1 DUP2 PUSH1 0x0 BYTE SWAP1 MSTORE8 POP DUP3 PUSH1 0xF PUSH1 0xF8 SHL DUP6 PUSH1 0xC DUP5 PUSH2 0x8AA SWAP2 SWAP1 PUSH2 0x1529 JUMP JUMPDEST PUSH1 0x20 DUP2 LT PUSH2 0x8BB JUMPI PUSH2 0x8BA PUSH2 0x14C1 JUMP JUMPDEST JUMPDEST BYTE PUSH1 0xF8 SHL AND PUSH1 0xF8 SHR PUSH1 0xFF AND DUP2 MLOAD DUP2 LT PUSH2 0x8D7 JUMPI PUSH2 0x8D6 PUSH2 0x14C1 JUMP JUMPDEST JUMPDEST PUSH1 0x20 ADD ADD MLOAD PUSH1 0xF8 SHR PUSH1 0xF8 SHL DUP3 PUSH1 0x2 DUP4 PUSH2 0x8F0 SWAP2 SWAP1 PUSH2 0x155D JUMP JUMPDEST PUSH1 0x3 PUSH2 0x8FC SWAP2 SWAP1 PUSH2 0x1529 JUMP JUMPDEST DUP2 MLOAD DUP2 LT PUSH2 0x90D JUMPI PUSH2 0x90C PUSH2 0x14C1 JUMP JUMPDEST JUMPDEST PUSH1 0x20 ADD ADD SWAP1 PUSH31 0xFFFFFFFFFFFFFFFFFFFFFFFFFFFFFFFFFFFFFFFFFFFFFFFFFFFFFFFFFFFFFF NOT AND SWAP1 DUP2 PUSH1 0x0 BYTE SWAP1 MSTORE8 POP DUP1 DUP1 PUSH1 0x1 ADD SWAP2 POP POP PUSH2 0x7C7 JUMP JUMPDEST POP DUP1 SWAP4 POP POP POP POP SWAP2 SWAP1 POP JUMP JUMPDEST PUSH1 0x0 PUSH1 0x40 MLOAD SWAP1 POP SWAP1 JUMP JUMPDEST PUSH1 0x0 DUP1 REVERT JUMPDEST PUSH1 0x0 DUP1 REVERT JUMPDEST PUSH1 0x0 PUSH20 0xFFFFFFFFFFFFFFFFFFFFFFFFFFFFFFFFFFFFFFFF DUP3 AND SWAP1 POP SWAP2 SWAP1 POP JUMP JUMPDEST PUSH1 0x0 PUSH2 0x994 DUP3 PUSH2 0x969 JUMP JUMPDEST SWAP1 POP SWAP2 SWAP1 POP JUMP JUMPDEST PUSH2 0x9A4 DUP2 PUSH2 0x989 JUMP JUMPDEST DUP2 EQ PUSH2 0x9AF JUMPI PUSH1 0x0 DUP1 REVERT JUMPDEST POP JUMP JUMPDEST PUSH1 0x0 DUP2 CALLDATALOAD SWAP1 POP PUSH2 0x9C1 DUP2 PUSH2 0x99B JUMP JUMPDEST SWAP3 SWAP2 POP POP JUMP JUMPDEST PUSH1 0x0 DUP1 REVERT JUMPDEST PUSH1 0x0 DUP1 REVERT JUMPDEST PUSH1 0x0 PUSH1 0x1F NOT PUSH1 0x1F DUP4 ADD AND SWAP1 POP SWAP2 SWAP1 POP JUMP JUMPDEST PUSH32 0x4E487B7100000000000000000000000000000000000000000000000000000000 PUSH1 0x0 MSTORE PUSH1 0x41 PUSH1 0x4 MSTORE PUSH1 0x24 PUSH1 0x0 REVERT JUMPDEST PUSH2 0xA1A DUP3 PUSH2 0x9D1 JUMP JUMPDEST DUP2 ADD DUP2 DUP2 LT PUSH8 0xFFFFFFFFFFFFFFFF DUP3 GT OR ISZERO PUSH2 0xA39 JUMPI PUSH2 0xA38 PUSH2 0x9E2 JUMP JUMPDEST JUMPDEST DUP1 PUSH1 0x40 MSTORE POP POP POP JUMP JUMPDEST PUSH1 0x0 PUSH2 0xA4C PUSH2 0x955 JUMP JUMPDEST SWAP1 POP PUSH2 0xA58 DUP3 DUP3 PUSH2 0xA11 JUMP JUMPDEST SWAP2 SWAP1 POP JUMP JUMPDEST PUSH1 0x0 PUSH8 0xFFFFFFFFFFFFFFFF DUP3 GT ISZERO PUSH2 0xA78 JUMPI PUSH2 0xA77 PUSH2 0x9E2 JUMP JUMPDEST JUMPDEST PUSH2 0xA81 DUP3 PUSH2 0x9D1 JUMP JUMPDEST SWAP1 POP PUSH1 0x20 DUP2 ADD SWAP1 POP SWAP2 SWAP1 POP JUMP JUMPDEST DUP3 DUP2 DUP4 CALLDATACOPY PUSH1 0x0 DUP4 DUP4 ADD MSTORE POP POP POP JUMP JUMPDEST PUSH1 0x0 PUSH2 0xAB0 PUSH2 0xAAB DUP5 PUSH2 0xA5D JUMP JUMPDEST PUSH2 0xA42 JUMP JUMPDEST SWAP1 POP DUP3 DUP2 MSTORE PUSH1 0x20 DUP2 ADD DUP5 DUP5 DUP5 ADD GT ISZERO PUSH2 0xACC JUMPI PUSH2 0xACB PUSH2 0x9CC JUMP JUMPDEST JUMPDEST PUSH2 0xAD7 DUP5 DUP3 DUP6 PUSH2 0xA8E JUMP JUMPDEST POP SWAP4 SWAP3 POP POP POP JUMP JUMPDEST PUSH1 0x0 DUP3 PUSH1 0x1F DUP4 ADD SLT PUSH2 0xAF4 JUMPI PUSH2 0xAF3 PUSH2 0x9C7 JUMP JUMPDEST JUMPDEST DUP2 CALLDATALOAD PUSH2 0xB04 DUP5 DUP3 PUSH1 0x20 DUP7 ADD PUSH2 0xA9D JUMP JUMPDEST SWAP2 POP POP SWAP3 SWAP2 POP POP JUMP JUMPDEST PUSH1 0x0 PUSH8 0xFFFFFFFFFFFFFFFF DUP3 GT ISZERO PUSH2 0xB28 JUMPI PUSH2 0xB27 PUSH2 0x9E2 JUMP JUMPDEST JUMPDEST PUSH2 0xB31 DUP3 PUSH2 0x9D1 JUMP JUMPDEST SWAP1 POP PUSH1 0x20 DUP2 ADD SWAP1 POP SWAP2 SWAP1 POP JUMP JUMPDEST PUSH1 0x0 PUSH2 0xB51 PUSH2 0xB4C DUP5 PUSH2 0xB0D JUMP JUMPDEST PUSH2 0xA42 JUMP JUMPDEST SWAP1 POP DUP3 DUP2 MSTORE PUSH1 0x20 DUP2 ADD DUP5 DUP5 DUP5 ADD GT ISZERO PUSH2 0xB6D JUMPI PUSH2 0xB6C PUSH2 0x9CC JUMP JUMPDEST JUMPDEST PUSH2 0xB78 DUP5 DUP3 DUP6 PUSH2 0xA8E JUMP JUMPDEST POP SWAP4 SWAP3 POP POP POP JUMP JUMPDEST PUSH1 0x0 DUP3 PUSH1 0x1F DUP4 ADD SLT PUSH2 0xB95 JUMPI PUSH2 0xB94 PUSH2 0x9C7 JUMP JUMPDEST JUMPDEST DUP2 CALLDATALOAD PUSH2 0xBA5 DUP5 DUP3 PUSH1 0x20 DUP7 ADD PUSH2 0xB3E JUMP JUMPDEST SWAP2 POP POP SWAP3 SWAP2 POP POP JUMP JUMPDEST PUSH1 0x0 DUP1 PUSH1 0x0 PUSH1 0x60 DUP5 DUP7 SUB SLT ISZERO PUSH2 0xBC7 JUMPI PUSH2 0xBC6 PUSH2 0x95F JUMP JUMPDEST JUMPDEST PUSH1 0x0 PUSH2 0xBD5 DUP7 DUP3 DUP8 ADD PUSH2 0x9B2 JUMP JUMPDEST SWAP4 POP POP PUSH1 0x20 DUP5 ADD CALLDATALOAD PUSH8 0xFFFFFFFFFFFFFFFF DUP2 GT ISZERO PUSH2 0xBF6 JUMPI PUSH2 0xBF5 PUSH2 0x964 JUMP JUMPDEST JUMPDEST PUSH2 0xC02 DUP7 DUP3 DUP8 ADD PUSH2 0xADF JUMP JUMPDEST SWAP3 POP POP PUSH1 0x40 DUP5 ADD CALLDATALOAD PUSH8 0xFFFFFFFFFFFFFFFF DUP2 GT ISZERO PUSH2 0xC23 JUMPI PUSH2 0xC22 PUSH2 0x964 JUMP JUMPDEST JUMPDEST PUSH2 0xC2F DUP7 DUP3 DUP8 ADD PUSH2 0xB80 JUMP JUMPDEST SWAP2 POP POP SWAP3 POP SWAP3 POP SWAP3 JUMP JUMPDEST PUSH1 0x0 DUP2 ISZERO ISZERO SWAP1 POP SWAP2 SWAP1 POP JUMP JUMPDEST PUSH2 0xC4E DUP2 PUSH2 0xC39 JUMP JUMPDEST DUP3 MSTORE POP POP JUMP JUMPDEST PUSH1 0x0 PUSH1 0x20 DUP3 ADD SWAP1 POP PUSH2 0xC69 PUSH1 0x0 DUP4 ADD DUP5 PUSH2 0xC45 JUMP JUMPDEST SWAP3 SWAP2 POP POP JUMP JUMPDEST PUSH2 0xC78 DUP2 PUSH2 0x989 JUMP JUMPDEST DUP3 MSTORE POP POP JUMP JUMPDEST PUSH1 0x0 PUSH1 0x20 DUP3 ADD SWAP1 POP PUSH2 0xC93 PUSH1 0x0 DUP4 ADD DUP5 PUSH2 0xC6F JUMP JUMPDEST SWAP3 SWAP2 POP POP JUMP JUMPDEST PUSH1 0x0 DUP2 MLOAD SWAP1 POP SWAP2 SWAP1 POP JUMP JUMPDEST PUSH1 0x0 DUP3 DUP3 MSTORE PUSH1 0x20 DUP3 ADD SWAP1 POP SWAP3 SWAP2 POP POP JUMP JUMPDEST PUSH1 0x0 JUMPDEST DUP4 DUP2 LT ISZERO PUSH2 0xCD3 JUMPI DUP1 DUP3 ADD MLOAD DUP2 DUP5 ADD MSTORE PUSH1 0x20 DUP2 ADD SWAP1 POP PUSH2 0xCB8 JUMP JUMPDEST PUSH1 0x0 DUP5 DUP5 ADD MSTORE POP POP POP POP JUMP JUMPDEST PUSH1 0x0 PUSH2 0xCEA DUP3 PUSH2 0xC99 JUMP JUMPDEST PUSH2 0xCF4 DUP2 DUP6 PUSH2 0xCA4 JUMP JUMPDEST SWAP4 POP PUSH2 0xD04 DUP2 DUP6 PUSH1 0x20 DUP7 ADD PUSH2 0xCB5 JUMP JUMPDEST PUSH2 0xD0D DUP2 PUSH2 0x9D1 JUMP JUMPDEST DUP5 ADD SWAP2 POP POP SWAP3 SWAP2 POP POP JUMP JUMPDEST PUSH1 0x0 PUSH1 0x20 DUP3 ADD SWAP1 POP DUP2 DUP2 SUB PUSH1 0x0 DUP4 ADD MSTORE PUSH2 0xD32 DUP2 DUP5 PUSH2 0xCDF JUMP JUMPDEST SWAP1 POP SWAP3 SWAP2 POP POP JUMP JUMPDEST PUSH1 0x0 DUP2 SWAP1 POP SWAP2 SWAP1 POP JUMP JUMPDEST PUSH2 0xD4D DUP2 PUSH2 0xD3A JUMP JUMPDEST DUP2 EQ PUSH2 0xD58 JUMPI PUSH1 0x0 DUP1 REVERT JUMPDEST POP JUMP JUMPDEST PUSH1 0x0 DUP2 CALLDATALOAD SWAP1 POP PUSH2 0xD6A DUP2 PUSH2 0xD44 JUMP JUMPDEST SWAP3 SWAP2 POP POP JUMP JUMPDEST PUSH1 0x0 DUP1 PUSH1 0x40 DUP4 DUP6 SUB SLT ISZERO PUSH2 0xD87 JUMPI PUSH2 0xD86 PUSH2 0x95F JUMP JUMPDEST JUMPDEST PUSH1 0x0 PUSH2 0xD95 DUP6 DUP3 DUP7 ADD PUSH2 0xD5B JUMP JUMPDEST SWAP3 POP POP PUSH1 0x20 DUP4 ADD CALLDATALOAD PUSH8 0xFFFFFFFFFFFFFFFF DUP2 GT ISZERO PUSH2 0xDB6 JUMPI PUSH2 0xDB5 PUSH2 0x964 JUMP JUMPDEST JUMPDEST PUSH2 0xDC2 DUP6 DUP3 DUP7 ADD PUSH2 0xB80 JUMP JUMPDEST SWAP2 POP POP SWAP3 POP SWAP3 SWAP1 POP JUMP JUMPDEST PUSH1 0x0 PUSH1 0x20 DUP3 DUP5 SUB SLT ISZERO PUSH2 0xDE2 JUMPI PUSH2 0xDE1 PUSH2 0x95F JUMP JUMPDEST JUMPDEST PUSH1 0x0 DUP3 ADD CALLDATALOAD PUSH8 0xFFFFFFFFFFFFFFFF DUP2 GT ISZERO PUSH2 0xE00 JUMPI PUSH2 0xDFF PUSH2 0x964 JUMP JUMPDEST JUMPDEST PUSH2 0xE0C DUP5 DUP3 DUP6 ADD PUSH2 0xB80 JUMP JUMPDEST SWAP2 POP POP SWAP3 SWAP2 POP POP JUMP JUMPDEST PUSH2 0xE1E DUP2 PUSH2 0xD3A JUMP JUMPDEST DUP3 MSTORE POP POP JUMP JUMPDEST PUSH1 0x0 PUSH1 0xFF DUP3 AND SWAP1 POP SWAP2 SWAP1 POP JUMP JUMPDEST PUSH2 0xE3A DUP2 PUSH2 0xE24 JUMP JUMPDEST DUP3 MSTORE POP POP JUMP JUMPDEST PUSH1 0x0 PUSH1 0x60 DUP3 ADD SWAP1 POP PUSH2 0xE55 PUSH1 0x0 DUP4 ADD DUP7 PUSH2 0xE15 JUMP JUMPDEST PUSH2 0xE62 PUSH1 0x20 DUP4 ADD DUP6 PUSH2 0xE15 JUMP JUMPDEST PUSH2 0xE6F PUSH1 0x40 DUP4 ADD DUP5 PUSH2 0xE31 JUMP JUMPDEST SWAP5 SWAP4 POP POP POP POP JUMP JUMPDEST PUSH1 0x0 PUSH1 0x20 DUP3 DUP5 SUB SLT ISZERO PUSH2 0xE8D JUMPI PUSH2 0xE8C PUSH2 0x95F JUMP JUMPDEST JUMPDEST PUSH1 0x0 DUP3 ADD CALLDATALOAD PUSH8 0xFFFFFFFFFFFFFFFF DUP2 GT ISZERO PUSH2 0xEAB JUMPI PUSH2 0xEAA PUSH2 0x964 JUMP JUMPDEST JUMPDEST PUSH2 0xEB7 DUP5 DUP3 DUP6 ADD PUSH2 0xADF JUMP JUMPDEST SWAP2 POP POP SWAP3 SWAP2 POP POP JUMP JUMPDEST PUSH1 0x0 PUSH1 0x20 DUP3 ADD SWAP1 POP PUSH2 0xED5 PUSH1 0x0 DUP4 ADD DUP5 PUSH2 0xE15 JUMP JUMPDEST SWAP3 SWAP2 POP POP JUMP JUMPDEST PUSH1 0x0 PUSH1 0x20 DUP3 DUP5 SUB SLT ISZERO PUSH2 0xEF1 JUMPI PUSH2 0xEF0 PUSH2 0x95F JUMP JUMPDEST JUMPDEST PUSH1 0x0 PUSH2 0xEFF DUP5 DUP3 DUP6 ADD PUSH2 0xD5B JUMP JUMPDEST SWAP2 POP POP SWAP3 SWAP2 POP POP JUMP JUMPDEST PUSH1 0x0 DUP1 PUSH1 0x0 DUP1 PUSH1 0x80 DUP6 DUP8 SUB SLT ISZERO PUSH2 0xF22 JUMPI PUSH2 0xF21 PUSH2 0x95F JUMP JUMPDEST JUMPDEST PUSH1 0x0 DUP6 ADD CALLDATALOAD PUSH8 0xFFFFFFFFFFFFFFFF DUP2 GT ISZERO PUSH2 0xF40 JUMPI PUSH2 0xF3F PUSH2 0x964 JUMP JUMPDEST JUMPDEST PUSH2 0xF4C DUP8 DUP3 DUP9 ADD PUSH2 0xADF JUMP JUMPDEST SWAP5 POP POP PUSH1 0x20 DUP6 ADD CALLDATALOAD PUSH8 0xFFFFFFFFFFFFFFFF DUP2 GT ISZERO PUSH2 0xF6D JUMPI PUSH2 0xF6C PUSH2 0x964 JUMP JUMPDEST JUMPDEST PUSH2 0xF79 DUP8 DUP3 DUP9 ADD PUSH2 0xADF JUMP JUMPDEST SWAP4 POP POP PUSH1 0x40 DUP6 ADD CALLDATALOAD PUSH8 0xFFFFFFFFFFFFFFFF DUP2 GT ISZERO PUSH2 0xF9A JUMPI PUSH2 0xF99 PUSH2 0x964 JUMP JUMPDEST JUMPDEST PUSH2 0xFA6 DUP8 DUP3 DUP9 ADD PUSH2 0xADF JUMP JUMPDEST SWAP3 POP POP PUSH1 0x60 DUP6 ADD CALLDATALOAD PUSH8 0xFFFFFFFFFFFFFFFF DUP2 GT ISZERO PUSH2 0xFC7 JUMPI PUSH2 0xFC6 PUSH2 0x964 JUMP JUMPDEST JUMPDEST PUSH2 0xFD3 DUP8 DUP3 DUP9 ADD PUSH2 0xB80 JUMP JUMPDEST SWAP2 POP POP SWAP3 SWAP6 SWAP2 SWAP5 POP SWAP3 POP JUMP JUMPDEST PUSH1 0x0 PUSH1 0x80 DUP3 ADD SWAP1 POP PUSH2 0xFF4 PUSH1 0x0 DUP4 ADD DUP8 PUSH2 0xE15 JUMP JUMPDEST PUSH2 0x1001 PUSH1 0x20 DUP4 ADD DUP7 PUSH2 0xE31 JUMP JUMPDEST PUSH2 0x100E PUSH1 0x40 DUP4 ADD DUP6 PUSH2 0xE15 JUMP JUMPDEST PUSH2 0x101B PUSH1 0x60 DUP4 ADD DUP5 PUSH2 0xE15 JUMP JUMPDEST SWAP6 SWAP5 POP POP POP POP POP JUMP JUMPDEST PUSH32 0x696E76616C6964207369676E6174757265206C656E6774680000000000000000 PUSH1 0x0 DUP3 ADD MSTORE POP JUMP JUMPDEST PUSH1 0x0 PUSH2 0x105A PUSH1 0x18 DUP4 PUSH2 0xCA4 JUMP JUMPDEST SWAP2 POP PUSH2 0x1065 DUP3 PUSH2 0x1024 JUMP JUMPDEST PUSH1 0x20 DUP3 ADD SWAP1 POP SWAP2 SWAP1 POP JUMP JUMPDEST PUSH1 0x0 PUSH1 0x20 DUP3 ADD SWAP1 POP DUP2 DUP2 SUB PUSH1 0x0 DUP4 ADD MSTORE PUSH2 0x1089 DUP2 PUSH2 0x104D JUMP JUMPDEST SWAP1 POP SWAP2 SWAP1 POP JUMP JUMPDEST PUSH1 0x0 DUP2 SWAP1 POP SWAP3 SWAP2 POP POP JUMP JUMPDEST PUSH1 0x0 PUSH2 0x10A6 DUP3 PUSH2 0xC99 JUMP JUMPDEST PUSH2 0x10B0 DUP2 DUP6 PUSH2 0x1090 JUMP JUMPDEST SWAP4 POP PUSH2 0x10C0 DUP2 DUP6 PUSH1 0x20 DUP7 ADD PUSH2 0xCB5 JUMP JUMPDEST DUP1 DUP5 ADD SWAP2 POP POP SWAP3 SWAP2 POP POP JUMP JUMPDEST PUSH1 0x0 PUSH2 0x10D8 DUP3 DUP5 PUSH2 0x109B JUMP JUMPDEST SWAP2 POP DUP2 SWAP1 POP SWAP3 SWAP2 POP POP JUMP JUMPDEST PUSH32 0x19457468657265756D205369676E6564204D6573736167653A0A333200000000 PUSH1 0x0 DUP3 ADD MSTORE POP JUMP JUMPDEST PUSH1 0x0 PUSH2 0x1119 PUSH1 0x1C DUP4 PUSH2 0x1090 JUMP JUMPDEST SWAP2 POP PUSH2 0x1124 DUP3 PUSH2 0x10E3 JUMP JUMPDEST PUSH1 0x1C DUP3 ADD SWAP1 POP SWAP2 SWAP1 POP JUMP JUMPDEST PUSH1 0x0 DUP2 SWAP1 POP SWAP2 SWAP1 POP JUMP JUMPDEST PUSH2 0x114A PUSH2 0x1145 DUP3 PUSH2 0xD3A JUMP JUMPDEST PUSH2 0x112F JUMP JUMPDEST DUP3 MSTORE POP POP JUMP JUMPDEST PUSH1 0x0 PUSH2 0x115B DUP3 PUSH2 0x110C JUMP JUMPDEST SWAP2 POP PUSH2 0x1167 DUP3 DUP5 PUSH2 0x1139 JUMP JUMPDEST PUSH1 0x20 DUP3 ADD SWAP2 POP DUP2 SWAP1 POP SWAP3 SWAP2 POP POP JUMP JUMPDEST PUSH32 0x2C20000000000000000000000000000000000000000000000000000000000000 PUSH1 0x0 DUP3 ADD MSTORE POP JUMP JUMPDEST PUSH1 0x0 PUSH2 0x11AC PUSH1 0x2 DUP4 PUSH2 0x1090 JUMP JUMPDEST SWAP2 POP PUSH2 0x11B7 DUP3 PUSH2 0x1176 JUMP JUMPDEST PUSH1 0x2 DUP3 ADD SWAP1 POP SWAP2 SWAP1 POP JUMP JUMPDEST PUSH1 0x0 PUSH2 0x11CE DUP3 DUP6 PUSH2 0x109B JUMP JUMPDEST SWAP2 POP PUSH2 0x11D9 DUP3 PUSH2 0x119F JUMP JUMPDEST SWAP2 POP PUSH2 0x11E5 DUP3 DUP5 PUSH2 0x109B JUMP JUMPDEST SWAP2 POP DUP2 SWAP1 POP SWAP4 SWAP3 POP POP POP JUMP JUMPDEST PUSH32 0x496E76616C6964207369676E6174757265000000000000000000000000000000 PUSH1 0x0 DUP3 ADD MSTORE POP JUMP JUMPDEST PUSH1 0x0 PUSH2 0x1227 PUSH1 0x11 DUP4 PUSH2 0xCA4 JUMP JUMPDEST SWAP2 POP PUSH2 0x1232 DUP3 PUSH2 0x11F1 JUMP JUMPDEST PUSH1 0x20 DUP3 ADD SWAP1 POP SWAP2 SWAP1 POP JUMP JUMPDEST PUSH1 0x0 PUSH1 0x20 DUP3 ADD SWAP1 POP DUP2 DUP2 SUB PUSH1 0x0 DUP4 ADD MSTORE PUSH2 0x1256 DUP2 PUSH2 0x121A JUMP JUMPDEST SWAP1 POP SWAP2 SWAP1 POP JUMP JUMPDEST PUSH32 0x686F73706974616C496400000000000000000000000000000000000000000000 PUSH1 0x0 DUP3 ADD MSTORE POP JUMP JUMPDEST PUSH1 0x0 PUSH2 0x1293 PUSH1 0xA DUP4 PUSH2 0x1090 JUMP JUMPDEST SWAP2 POP PUSH2 0x129E DUP3 PUSH2 0x125D JUMP JUMPDEST PUSH1 0xA DUP3 ADD SWAP1 POP SWAP2 SWAP1 POP JUMP JUMPDEST PUSH1 0x0 PUSH2 0x12B4 DUP3 PUSH2 0x1286 JUMP JUMPDEST SWAP2 POP DUP2 SWAP1 POP SWAP2 SWAP1 POP JUMP JUMPDEST PUSH32 0x4E487B7100000000000000000000000000000000000000000000000000000000 PUSH1 0x0 MSTORE PUSH1 0x22 PUSH1 0x4 MSTORE PUSH1 0x24 PUSH1 0x0 REVERT JUMPDEST PUSH1 0x0 PUSH1 0x2 DUP3 DIV SWAP1 POP PUSH1 0x1 DUP3 AND DUP1 PUSH2 0x1305 JUMPI PUSH1 0x7F DUP3 AND SWAP2 POP JUMPDEST PUSH1 0x20 DUP3 LT DUP2 SUB PUSH2 0x1318 JUMPI PUSH2 0x1317 PUSH2 0x12BE JUMP JUMPDEST JUMPDEST POP SWAP2 SWAP1 POP JUMP JUMPDEST PUSH1 0x0 DUP2 SWAP1 POP DUP2 PUSH1 0x0 MSTORE PUSH1 0x20 PUSH1 0x0 KECCAK256 SWAP1 POP SWAP2 SWAP1 POP JUMP JUMPDEST PUSH1 0x0 DUP2 SLOAD PUSH2 0x1340 DUP2 PUSH2 0x12ED JUMP JUMPDEST PUSH2 0x134A DUP2 DUP7 PUSH2 0x1090 JUMP JUMPDEST SWAP5 POP PUSH1 0x1 DUP3 AND PUSH1 0x0 DUP2 EQ PUSH2 0x1365 JUMPI PUSH1 0x1 DUP2 EQ PUSH2 0x137A JUMPI PUSH2 0x13AD JUMP JUMPDEST PUSH1 0xFF NOT DUP4 AND DUP7 MSTORE DUP2 ISZERO ISZERO DUP3 MUL DUP7 ADD SWAP4 POP PUSH2 0x13AD JUMP JUMPDEST PUSH2 0x1383 DUP6 PUSH2 0x131E JUMP JUMPDEST PUSH1 0x0 JUMPDEST DUP4 DUP2 LT ISZERO PUSH2 0x13A5 JUMPI DUP2 SLOAD DUP2 DUP10 ADD MSTORE PUSH1 0x1 DUP3 ADD SWAP2 POP PUSH1 0x20 DUP2 ADD SWAP1 POP PUSH2 0x1386 JUMP JUMPDEST DUP4 DUP9 ADD SWAP6 POP POP POP JUMPDEST POP POP POP SWAP3 SWAP2 POP POP JUMP JUMPDEST PUSH1 0x0 PUSH2 0x13C2 DUP3 DUP5 PUSH2 0x1333 JUMP JUMPDEST SWAP2 POP DUP2 SWAP1 POP SWAP3 SWAP2 POP POP JUMP JUMPDEST PUSH32 0x7370656369616C697A6174696F6E000000000000000000000000000000000000 PUSH1 0x0 DUP3 ADD MSTORE POP JUMP JUMPDEST PUSH1 0x0 PUSH2 0x1403 PUSH1 0xE DUP4 PUSH2 0x1090 JUMP JUMPDEST SWAP2 POP PUSH2 0x140E DUP3 PUSH2 0x13CD JUMP JUMPDEST PUSH1 0xE DUP3 ADD SWAP1 POP SWAP2 SWAP1 POP JUMP JUMPDEST PUSH1 0x0 PUSH2 0x1424 DUP3 PUSH2 0x13F6 JUMP JUMPDEST SWAP2 POP DUP2 SWAP1 POP SWAP2 SWAP1 POP JUMP JUMPDEST PUSH32 0x3A00000000000000000000000000000000000000000000000000000000000000 PUSH1 0x0 DUP3 ADD MSTORE POP JUMP JUMPDEST PUSH1 0x0 PUSH2 0x1464 PUSH1 0x1 DUP4 PUSH2 0x1090 JUMP JUMPDEST SWAP2 POP PUSH2 0x146F DUP3 PUSH2 0x142E JUMP JUMPDEST PUSH1 0x1 DUP3 ADD SWAP1 POP SWAP2 SWAP1 POP JUMP JUMPDEST PUSH1 0x0 PUSH2 0x1486 DUP3 DUP7 PUSH2 0x109B JUMP JUMPDEST SWAP2 POP PUSH2 0x1491 DUP3 PUSH2 0x1457 JUMP JUMPDEST SWAP2 POP PUSH2 0x149D DUP3 DUP6 PUSH2 0x109B JUMP JUMPDEST SWAP2 POP PUSH2 0x14A8 DUP3 PUSH2 0x1457 JUMP JUMPDEST SWAP2 POP PUSH2 0x14B4 DUP3 DUP5 PUSH2 0x109B JUMP JUMPDEST SWAP2 POP DUP2 SWAP1 POP SWAP5 SWAP4 POP POP POP POP JUMP JUMPDEST PUSH32 0x4E487B7100000000000000000000000000000000000000000000000000000000 PUSH1 0x0 MSTORE PUSH1 0x32 PUSH1 0x4 MSTORE PUSH1 0x24 PUSH1 0x0 REVERT JUMPDEST PUSH1 0x0 DUP2 SWAP1 POP SWAP2 SWAP1 POP JUMP JUMPDEST PUSH32 0x4E487B7100000000000000000000000000000000000000000000000000000000 PUSH1 0x0 MSTORE PUSH1 0x11 PUSH1 0x4 MSTORE PUSH1 0x24 PUSH1 0x0 REVERT JUMPDEST PUSH1 0x0 PUSH2 0x1534 DUP3 PUSH2 0x14F0 JUMP JUMPDEST SWAP2 POP PUSH2 0x153F DUP4 PUSH2 0x14F0 JUMP JUMPDEST SWAP3 POP DUP3 DUP3 ADD SWAP1 POP DUP1 DUP3 GT ISZERO PUSH2 0x1557 JUMPI PUSH2 0x1556 PUSH2 0x14FA JUMP JUMPDEST JUMPDEST SWAP3 SWAP2 POP POP JUMP JUMPDEST PUSH1 0x0 PUSH2 0x1568 DUP3 PUSH2 0x14F0 JUMP JUMPDEST SWAP2 POP PUSH2 0x1573 DUP4 PUSH2 0x14F0 JUMP JUMPDEST SWAP3 POP DUP3 DUP3 MUL PUSH2 0x1581 DUP2 PUSH2 0x14F0 JUMP JUMPDEST SWAP2 POP DUP3 DUP3 DIV DUP5 EQ DUP4 ISZERO OR PUSH2 0x1598 JUMPI PUSH2 0x1597 PUSH2 0x14FA JUMP JUMPDEST JUMPDEST POP SWAP3 SWAP2 POP POP JUMP INVALID LOG2 PUSH5 0x6970667358 0x22 SLT KECCAK256 PUSH8 0x6D8189C832441CC8 PUSH15 0xD0A7C5CBB18499DE6B17504AF013E3 0x4E RETURNDATACOPY 0xEE ADDRESS MSTORE ADD DUP7 PUSH5 0x736F6C6343 STOP ADDMOD XOR STOP CALLER "},"methodIdentifiers":{"convert()":"91bbdcc7","evaluate(string,string,string,bytes)":"fd167276","getEthSignedMessageHash(bytes32)":"fa540801","getMessageHash(string)":"b446f3b2","getPolicy()":"ce1e4626","publicKey()":"63ffab31","recoverSigner(bytes32,bytes)":"97aba7f9","splitSignature(bytes)":"a7bb5803","verify(address,string,bytes)":"2dd34f0f"}}}}}